:100000000C942A000C9464010C943C000C943C0069
:100010000C943C000C943C000C943C000C943C0070
:100020000C943C000C943C000C943C000C943C0060
:100030000C943C000C943C000C943C000C943C0050
:100040000C943C000C943C000C943C000C943C0040
:100050000C943C0011241FBECFE5D8E0DEBFCDBF1D
:1000600020E0A0E6B0E001C01D92A736B207E1F79C
:100070000E9416020C9445050C94000062E084E492
:100080000E947D0160E081E40E94810161E081E4E1
:100090000E94810162E081E40E94810160E082E4CB
:1000A0000E94810161E082E40E94810162E082E4B9
:1000B0000E9481010E941103789485B7836085BFF7
:1000C0008BB780648BBF089580916400882321F0F2
:1000D000813009F454C0F8CF10926000109265008E
:1000E00081E08093610060E081E40E94850188E8FE
:1000F00093E10E94140360E081E40E9489018091F1
:100100006400813009F31092610081E08093620005
:1001100024EF31E048E853E161E081E40E948D0181
:1001200080916400813081F21092620081E08093BE
:10013000630062E081E40E94850188E893E10E9407
:10014000140380916400813009F4BECF10926300E3
:1001500062E081E40E94890181E08093620024EFE3
:1001600031E048E853E161E081E40E948D01809133
:100170006400813009F4A8CF10926200A5CF1092DC
:10018000660080916100813009F041C060E081E447
:100190000E94850162E082E40E94850188E893E183
:1001A0000E94140360E081E40E94890162E082E41D
:1001B0000E9489010F2EF4EFEF2EFF24F394F02D0F
:1001C00008E813E121E042E461E081E40E94CF010C
:1001D00062E081E40E94850160E082E40E94850182
:1001E00088E893E10E94140362E081E40E9489019F
:1001F00060E082E40E94890121E042E461E081E460
:100200000E94CF0110926100109264005DCF809136
:100210006200813069F50F2EF4EFEF2EFF24F39486
:10022000F02D08E813E121E042E461E081E40E945E
:10023000CF0162E081E40E94850160E082E40E94D7
:10024000850188E893E10E94140362E081E40E9442
:10025000890160E082E40E94890121E042E461E0DA
:1002600081E40E94CF0110926200109264002CCFB2
:1002700080916300813009F027CF62E081E40E9421
:10028000850160E082E40E94850188E893E10E9494
:10029000140362E081E40E94890160E082E40E942C
:1002A00089010F2EF4EFEF2EFF24F394F02D08E8D0
:1002B00013E121E042E461E081E40E94CF01109269
:1002C00063001092640000CF1F920F920FB60F923E
:1002D00011248F9380916000811109C081E0809387
:1002E00066008093640080936000809365008F9126
:1002F0000F900FBE0F901F90189540E00E941D02B6
:10030000089541E00E941D02089541E00E94970275
:10031000089540E00E9497020895CF92DF92FF92E5
:100320000F931F93CF93DF93F82ED62F89019A0155
:10033000369527953695279536952795A5ECB0E205
:100340000E9436056C01D694C794D694C794D6946F
:10035000C794D694C794C0E00FC06D2F8F2D0E9414
:100360008501C8010E9414036D2F8F2D0E94890101
:10037000C8010E941403CF5F8C2F90E08C159D055F
:1003800020F480916500882341F310926500DF918D
:10039000CF911F910F91FF90DF90CF900895BF9262
:1003A000CF92DF92EF92FF920F931F93CF93DF9341
:1003B000B82EC62ED42ED22F980136952795369575
:1003C000279536952795A5ECB0E20E9436058C015D
:1003D000129502950F7001271F700127C0E017C00A
:1003E0006C2D8B2D0E9485016D2F8D2D0E94850116
:1003F000C7010E9414036C2D8B2D0E9489016D2F63
:100400008D2D0E948901C7010E941403CF5F8C2F9C
:1004100090E08017910720F3DF91CF911F910F910A
:10042000FF90EF90DF90CF90BF9008950E943E0024
:100430000E94640080E090E00895823431F118F465
:10044000813439F008958334E1F1843409F454C0DF
:10045000089541110CC02AB381E090E002C0880FDA
:10046000991F6A95E2F7809582238ABB08954130EF
:1004700009F05CC02AB381E090E002C0880F991FA8
:100480006A95E2F7822B8ABB089541110CC027B30D
:1004900081E090E002C0880F991F6A95E2F780958D
:1004A000822387BB0895413009F040C027B381E023
:1004B00090E002C0880F991F6A95E2F7822B87BBF4
:1004C000089541110CC024B381E090E002C0880F70
:1004D000991F6A95E2F78095822384BB0895413085
:1004E00029F524B381E090E002C0880F991F6A9536
:1004F000E2F7822B84BB089541110CC021B381E047
:1005000090E002C0880F991F6A95E2F780958223D8
:1005100081BB0895413051F421B381E090E002C0E5
:10052000880F991F6A95E2F7822B81BB0895823468
:1005300031F118F4813439F008958334E1F18434D1
:1005400009F454C0089541110CC02BB381E090E030
:1005500002C0880F991F6A95E2F7809582238BBBB2
:100560000895413009F05CC02BB381E090E002C0F7
:10057000880F991F6A95E2F7822B8BBB0895411172
:100580000CC028B381E090E002C0880F991F6A95E3
:10059000E2F78095822388BB0895413009F040C07E
:1005A00028B381E090E002C0880F991F6A95E2F7B6
:1005B000822B88BB089541110CC025B381E090E0E7
:1005C00002C0880F991F6A95E2F78095822385BB48
:1005D0000895413029F525B381E090E002C0880FED
:1005E000991F6A95E2F7822B85BB089541110CC0D3
:1005F00022B381E090E002C0880F991F6A95E2F76C
:100600008095822382BB0895413051F422B381E06A
:1006100090E002C0880F991F6A95E2F7822B82BB97
:10062000089513BE12BE08958F929F92AF92BF920B
:10063000CF92DF92EF92FF92BC0180E090E00E94A7
:1006400084046B017C012FE632E143E85EE30E9403
:10065000E3034B015C012FE632E143E85AE3C701B3
:10066000B6010E94E303A50194010E94E3039B01EC
:10067000AC0160E070E080E893E40E9471030E94A6
:10068000550462BF83B7816083BFC12CD12C760132
:1006900010C008B600FEFDCF88B7816088BF20E09B
:1006A00030E040E85FE3C701B6010E9472036B01CE
:1006B0007C01A5019401C701B6010E94DE038823D5
:1006C00024F480916600882321F31092660013BE03
:1006D000FF90EF90DF90CF90BF90AF909F908F9062
:1006E00008955058BB27AA270E9489030C94FC0444
:1006F0000E94EE0438F00E94F50420F039F49F3F88
:1007000019F426F40C94EB040EF4E095E7FB0C943A
:10071000E504E92F0E940D0558F3BA176207730725
:100720008407950720F079F4A6F50C942F050EF4B4
:10073000E0950B2EBA2FA02D0B01B90190010C01F1
:10074000CA01A0011124FF27591B99F0593F50F409
:10075000503E68F11A16F040A22F232F342F442761
:10076000585FF3CF469537952795A795F040539559
:10077000C9F77EF41F16BA0B620B730B840BBAF029
:100780009150A1F0FF0FBB1F661F771F881FC2F794
:100790000EC0BA0F621F731F841F48F487957795A8
:1007A0006795B795F7959E3F08F0B0CF9395880F62
:1007B00008F09927EE0F9795879508950E94C10438
:1007C00008F481E008950E94F7030C94FC040E9451
:1007D000F50458F00E94EE0440F029F45F3F29F040
:1007E0000C94E50451110C9430050C94EB040E9418
:1007F0000D0568F39923B1F3552391F3951B550B20
:10080000BB27AA2762177307840738F09F5F5F4FE3
:10081000220F331F441FAA1FA9F335D00E2E3AF022
:10082000E0E832D091505040E695001CCAF72BD03A
:10083000FE2F29D0660F771F881FBB1F261737078B
:100840004807AB07B0E809F0BB0B802DBF01FF27BD
:1008500093585F4F3AF09E3F510578F00C94E504B1
:100860000C9430055F3FE4F3983ED4F3869577957A
:100870006795B795F7959F5FC9F7880F911D969576
:10088000879597F90895E1E0660F771F881FBB1FD2
:10089000621773078407BA0720F0621B730B840B7F
:1008A000BA0BEE1F88F7E09508950E94150588F0B1
:1008B0009F5798F0B92F9927B751B0F0E1F0660F24
:1008C000771F881F991F1AF0BA95C9F714C0B13065
:1008D00091F00E942F05B1E008950C942F05672F29
:1008E000782F8827B85F39F0B93FCCF38695779594
:1008F0006795B395D9F73EF490958095709561957D
:100900007F4F8F4F9F4F0895E89409C097FB3EF4A7
:1009100090958095709561957F4F8F4F9F4F99234C
:10092000A9F0F92F96E9BB279395F69587957795CA
:100930006795B795F111F8CFFAF4BB0F11F460FF8A
:100940001BC06F5F7F4F8F4F9F4F16C0882311F0E2
:1009500096E911C0772321F09EE8872F762F05C0F6
:10096000662371F096E8862F70E060E02AF09A9591
:10097000660F771F881FDAF7880F9695879597F986
:100980000895990F0008550FAA0BE0E8FEEF161620
:100990001706E807F907C0F012161306E407F50773
:1009A00098F0621B730B840B950B39F40A2661F0E7
:1009B000232B242B252B21F408950A2609F4A1408A
:1009C000A6958FEF811D811D089597F99F6780E897
:1009D00070E060E008959FEF80EC089500240A9491
:1009E0001616170618060906089500240A9412160A
:1009F0001306140605060895092E0394000C11F43D
:100A0000882352F0BB0F40F4BF2B11F460FF04C0E9
:100A10006F5F7F4F8F4F9F4F089557FD9058440F42
:100A2000551F59F05F3F71F04795880F97FB991F4D
:100A300061F09F3F79F0879508951216130614060A
:100A4000551FF2CF4695F1DF08C016161706180697
:100A5000991FF1CF86957105610508940895E89472
:100A6000BB2766277727CB0197F90895A29FB0018E
:100A7000B39FC001A39F700D811D1124911DB29FD2
:0E0A8000700D811D1124911D0895F894FFCF73
:00000001FF
